{
  "_format": "hh-sol-artifact-1",
  "contractName": "Create",
  "sourceName": "contracts/VotingContract.sol",
  "abi": [
    {
      "inputs": [],
      "stateMutability": "nonpayable",
      "type": "constructor"
    },
    {
      "anonymous": false,
      "inputs": [
        {
          "indexed": true,
          "internalType": "uint256",
          "name": "candidateId",
          "type": "uint256"
        },
        {
          "indexed": false,
          "internalType": "string",
          "name": "age",
          "type": "string"
        },
        {
          "indexed": false,
          "internalType": "string",
          "name": "name",
          "type": "string"
        },
        {
          "indexed": false,
          "internalType": "string",
          "name": "image",
          "type": "string"
        },
        {
          "indexed": false,
          "internalType": "uint256",
          "name": "voteCount",
          "type": "uint256"
        },
        {
          "indexed": false,
          "internalType": "address",
          "name": "_address",
          "type": "address"
        },
        {
          "indexed": false,
          "internalType": "string",
          "name": "ipfs",
          "type": "string"
        }
      ],
      "name": "CandidateCreate",
      "type": "event"
    },
    {
      "anonymous": false,
      "inputs": [
        {
          "indexed": true,
          "internalType": "uint256",
          "name": "voter_voter_Id",
          "type": "uint256"
        },
        {
          "indexed": false,
          "internalType": "string",
          "name": "voter_name",
          "type": "string"
        },
        {
          "indexed": false,
          "internalType": "string",
          "name": "voter_image",
          "type": "string"
        },
        {
          "indexed": false,
          "internalType": "address",
          "name": "voter_address",
          "type": "address"
        },
        {
          "indexed": false,
          "internalType": "uint256",
          "name": "voter_allowed",
          "type": "uint256"
        },
        {
          "indexed": false,
          "internalType": "bool",
          "name": "voter_voted",
          "type": "bool"
        },
        {
          "indexed": false,
          "internalType": "uint256",
          "name": "voter_vote",
          "type": "uint256"
        },
        {
          "indexed": false,
          "internalType": "string",
          "name": "voter_ipfs",
          "type": "string"
        }
      ],
      "name": "VoterCreated",
      "type": "event"
    },
    {
      "inputs": [],
      "name": "_candidateId",
      "outputs": [
        {
          "internalType": "uint256",
          "name": "_value",
          "type": "uint256"
        }
      ],
      "stateMutability": "view",
      "type": "function"
    },
    {
      "inputs": [],
      "name": "_voterId",
      "outputs": [
        {
          "internalType": "uint256",
          "name": "_value",
          "type": "uint256"
        }
      ],
      "stateMutability": "view",
      "type": "function"
    },
    {
      "inputs": [
        {
          "internalType": "uint256",
          "name": "",
          "type": "uint256"
        }
      ],
      "name": "candidateAddress",
      "outputs": [
        {
          "internalType": "address",
          "name": "",
          "type": "address"
        }
      ],
      "stateMutability": "view",
      "type": "function"
    },
    {
      "inputs": [
        {
          "internalType": "address",
          "name": "",
          "type": "address"
        }
      ],
      "name": "candidates",
      "outputs": [
        {
          "internalType": "uint256",
          "name": "candidateId",
          "type": "uint256"
        },
        {
          "internalType": "string",
          "name": "age",
          "type": "string"
        },
        {
          "internalType": "string",
          "name": "name",
          "type": "string"
        },
        {
          "internalType": "string",
          "name": "image",
          "type": "string"
        },
        {
          "internalType": "uint256",
          "name": "voteCount",
          "type": "uint256"
        },
        {
          "internalType": "address",
          "name": "_address",
          "type": "address"
        },
        {
          "internalType": "string",
          "name": "ipfs",
          "type": "string"
        }
      ],
      "stateMutability": "view",
      "type": "function"
    },
    {
      "inputs": [],
      "name": "getCandidate",
      "outputs": [
        {
          "internalType": "address[]",
          "name": "",
          "type": "address[]"
        }
      ],
      "stateMutability": "view",
      "type": "function"
    },
    {
      "inputs": [
        {
          "internalType": "address",
          "name": "_address",
          "type": "address"
        }
      ],
      "name": "getCandidateAdditionalData",
      "outputs": [
        {
          "internalType": "string",
          "name": "",
          "type": "string"
        },
        {
          "internalType": "uint256",
          "name": "",
          "type": "uint256"
        },
        {
          "internalType": "string",
          "name": "",
          "type": "string"
        },
        {
          "internalType": "address",
          "name": "",
          "type": "address"
        }
      ],
      "stateMutability": "view",
      "type": "function"
    },
    {
      "inputs": [
        {
          "internalType": "address",
          "name": "_address",
          "type": "address"
        }
      ],
      "name": "getCandidateBasicData",
      "outputs": [
        {
          "internalType": "string",
          "name": "",
          "type": "string"
        },
        {
          "internalType": "string",
          "name": "",
          "type": "string"
        },
        {
          "internalType": "uint256",
          "name": "",
          "type": "uint256"
        }
      ],
      "stateMutability": "view",
      "type": "function"
    },
    {
      "inputs": [],
      "name": "getCandidateLength",
      "outputs": [
        {
          "internalType": "uint256",
          "name": "",
          "type": "uint256"
        }
      ],
      "stateMutability": "view",
      "type": "function"
    },
    {
      "inputs": [],
      "name": "getVotedVoterList",
      "outputs": [
        {
          "internalType": "address[]",
          "name": "",
          "type": "address[]"
        }
      ],
      "stateMutability": "view",
      "type": "function"
    },
    {
      "inputs": [],
      "name": "getVoterLength",
      "outputs": [
        {
          "internalType": "uint256",
          "name": "",
          "type": "uint256"
        }
      ],
      "stateMutability": "view",
      "type": "function"
    },
    {
      "inputs": [],
      "name": "getVoterList",
      "outputs": [
        {
          "internalType": "address[]",
          "name": "",
          "type": "address[]"
        }
      ],
      "stateMutability": "view",
      "type": "function"
    },
    {
      "inputs": [
        {
          "internalType": "address",
          "name": "_address",
          "type": "address"
        }
      ],
      "name": "getVoterdata",
      "outputs": [
        {
          "internalType": "uint256",
          "name": "",
          "type": "uint256"
        },
        {
          "internalType": "string",
          "name": "",
          "type": "string"
        },
        {
          "internalType": "string",
          "name": "",
          "type": "string"
        },
        {
          "internalType": "address",
          "name": "",
          "type": "address"
        },
        {
          "internalType": "string",
          "name": "",
          "type": "string"
        },
        {
          "internalType": "uint256",
          "name": "",
          "type": "uint256"
        },
        {
          "internalType": "bool",
          "name": "",
          "type": "bool"
        }
      ],
      "stateMutability": "view",
      "type": "function"
    },
    {
      "inputs": [
        {
          "internalType": "address",
          "name": "_address",
          "type": "address"
        },
        {
          "internalType": "string",
          "name": "_age",
          "type": "string"
        },
        {
          "internalType": "string",
          "name": "_name",
          "type": "string"
        },
        {
          "internalType": "string",
          "name": "_image",
          "type": "string"
        },
        {
          "internalType": "string",
          "name": "_ipfs",
          "type": "string"
        }
      ],
      "name": "setCandidate",
      "outputs": [],
      "stateMutability": "nonpayable",
      "type": "function"
    },
    {
      "inputs": [
        {
          "internalType": "address",
          "name": "_candidateAddress",
          "type": "address"
        },
        {
          "internalType": "uint256",
          "name": "_candidateVoteID",
          "type": "uint256"
        }
      ],
      "name": "vote",
      "outputs": [],
      "stateMutability": "nonpayable",
      "type": "function"
    },
    {
      "inputs": [
        {
          "internalType": "uint256",
          "name": "",
          "type": "uint256"
        }
      ],
      "name": "votedVoters",
      "outputs": [
        {
          "internalType": "address",
          "name": "",
          "type": "address"
        }
      ],
      "stateMutability": "view",
      "type": "function"
    },
    {
      "inputs": [
        {
          "internalType": "address",
          "name": "_address",
          "type": "address"
        },
        {
          "internalType": "string",
          "name": "_name",
          "type": "string"
        },
        {
          "internalType": "string",
          "name": "_image",
          "type": "string"
        },
        {
          "internalType": "string",
          "name": "_ipfs",
          "type": "string"
        }
      ],
      "name": "voterRight",
      "outputs": [],
      "stateMutability": "nonpayable",
      "type": "function"
    },
    {
      "inputs": [
        {
          "internalType": "address",
          "name": "",
          "type": "address"
        }
      ],
      "name": "voters",
      "outputs": [
        {
          "internalType": "uint256",
          "name": "voter_voter_Id",
          "type": "uint256"
        },
        {
          "internalType": "string",
          "name": "voter_name",
          "type": "string"
        },
        {
          "internalType": "string",
          "name": "voter_image",
          "type": "string"
        },
        {
          "internalType": "address",
          "name": "voter_address",
          "type": "address"
        },
        {
          "internalType": "uint256",
          "name": "voter_allowed",
          "type": "uint256"
        },
        {
          "internalType": "bool",
          "name": "voter_voted",
          "type": "bool"
        },
        {
          "internalType": "uint256",
          "name": "voter_vote",
          "type": "uint256"
        },
        {
          "internalType": "string",
          "name": "voter_ipfs",
          "type": "string"
        }
      ],
      "stateMutability": "view",
      "type": "function"
    },
    {
      "inputs": [
        {
          "internalType": "uint256",
          "name": "",
          "type": "uint256"
        }
      ],
      "name": "votersAddress",
      "outputs": [
        {
          "internalType": "address",
          "name": "",
          "type": "address"
        }
      ],
      "stateMutability": "view",
      "type": "function"
    },
    {
      "inputs": [],
      "name": "votingOrganizer",
      "outputs": [
        {
          "internalType": "address",
          "name": "",
          "type": "address"
        }
      ],
      "stateMutability": "view",
      "type": "function"
    }
  ],
  "bytecode": "0x608060405234801561001057600080fd5b5033600260006101000a81548173ffffffffffffffffffffffffffffffffffffffff021916908373ffffffffffffffffffffffffffffffffffffffff16021790555061250f806100616000396000f3fe608060405234801561001057600080fd5b50600436106101215760003560e01c80638ab66a90116100ad578063b76d12b811610071578063b76d12b814610342578063b9be315214610374578063c5036fd414610392578063c91ec712146103c8578063f7522a83146103e457610121565b80638ab66a901461027b5780638e945685146102b1578063a3ec138d146102cf578063a738896714610306578063b28d92ae1461032457610121565b806357ce36b1116100f457806357ce36b1146101c05780635cc48aa7146101f35780635f74bbde1461021157806370218b851461022d5780637831ffb31461024b57610121565b80630361419e1461012657806305ad45a4146101425780633a88251a1461016057806343242daa14610190575b600080fd5b610140600480360381019061013b9190611a29565b610402565b005b61014a6106c5565b6040516101579190611afd565b60405180910390f35b61017a60048036038101906101759190611b44565b6106d2565b6040516101879190611b80565b60405180910390f35b6101aa60048036038101906101a59190611b44565b610711565b6040516101b79190611b80565b60405180910390f35b6101da60048036038101906101d59190611b9b565b610750565b6040516101ea9493929190611c50565b60405180910390f35b6101fb6108f4565b6040516102089190611b80565b60405180910390f35b61022b60048036038101906102269190611ca3565b61091a565b005b610235610ae2565b6040516102429190611da1565b60405180910390f35b61026560048036038101906102609190611b44565b610b70565b6040516102729190611b80565b60405180910390f35b61029560048036038101906102909190611b9b565b610baf565b6040516102a89796959493929190611dc3565b60405180910390f35b6102b9610e31565b6040516102c69190611da1565b60405180910390f35b6102e960048036038101906102e49190611b9b565b610ebf565b6040516102fd989796959493929190611e69565b60405180910390f35b61030e6110cc565b60405161031b9190611afd565b60405180910390f35b61032c6110d8565b6040516103399190611da1565b60405180910390f35b61035c60048036038101906103579190611b9b565b611166565b60405161036b93929190611efc565b60405180910390f35b61037c6112e0565b6040516103899190611afd565b60405180910390f35b6103ac60048036038101906103a79190611b9b565b6112ec565b6040516103bf9796959493929190611f41565b60405180910390f35b6103e260048036038101906103dd9190611fc5565b611546565b005b6103ec61179d565b6040516103f99190611afd565b60405180910390f35b3373ffffffffffffffffffffffffffffffffffffffff16600260009054906101000a900473ffffffffffffffffffffffffffffffffffffffff1673ffffffffffffffffffffffffffffffffffffffff1614610492576040517f08c379a0000000000000000000000000000000000000000000000000000000008152600401610489906120fc565b60405180910390fd5b61049c60006117aa565b60006104a860006117c0565b90506000600760008773ffffffffffffffffffffffffffffffffffffffff1673ffffffffffffffffffffffffffffffffffffffff16815260200190815260200160002090506000816004015414610534576040517f08c379a000000000000000000000000000000000000000000000000000000000815260040161052b90612168565b60405180910390fd5b818160000181905550848160010190805190602001906105559291906117ce565b508381600201908051906020019061056e9291906117ce565b50858160030160006101000a81548173ffffffffffffffffffffffffffffffffffffffff021916908373ffffffffffffffffffffffffffffffffffffffff160217905550600181600401819055506103e8816006018190555060008160050160006101000a81548160ff021916908315150217905550828160070190805190602001906105fc9291906117ce565b506006869080600181540180825580915050600190039060005260206000200160009091909190916101000a81548173ffffffffffffffffffffffffffffffffffffffff021916908373ffffffffffffffffffffffffffffffffffffffff160217905550817ff5f39971dd62d9929e3a9feaa6bb77fe7c7da0001babff8a65a7e51ad0201c1986868985600401548660050160009054906101000a900460ff1687600601548a6040516106b59796959493929190612188565b60405180910390a2505050505050565b6000600680549050905090565b600381815481106106e257600080fd5b906000526020600020016000915054906101000a900473ffffffffffffffffffffffffffffffffffffffff1681565b6006818154811061072157600080fd5b906000526020600020016000915054906101000a900473ffffffffffffffffffffffffffffffffffffffff1681565b606060006060600080600460008773ffffffffffffffffffffffffffffffffffffffff1673ffffffffffffffffffffffffffffffffffffffff1681526020019081526020016000209050806003018160040154826006018360050160009054906101000a900473ffffffffffffffffffffffffffffffffffffffff168380546107d89061223b565b80601f01602080910402602001604051908101604052809291908181526020018280546108049061223b565b80156108515780601f1061082657610100808354040283529160200191610851565b820191906000526020600020905b81548152906001019060200180831161083457829003601f168201915b505050505093508180546108649061223b565b80601f01602080910402602001604051908101604052809291908181526020018280546108909061223b565b80156108dd5780601f106108b2576101008083540402835291602001916108dd565b820191906000526020600020905b8154815290600101906020018083116108c057829003601f168201915b505050505091509450945094509450509193509193565b600260009054906101000a900473ffffffffffffffffffffffffffffffffffffffff1681565b6000600760003373ffffffffffffffffffffffffffffffffffffffff1673ffffffffffffffffffffffffffffffffffffffff16815260200190815260200160002090508060050160009054906101000a900460ff16156109af576040517f08c379a00000000000000000000000000000000000000000000000000000000081526004016109a6906122b9565b60405180910390fd5b6000816004015414156109f7576040517f08c379a00000000000000000000000000000000000000000000000000000000081526004016109ee90612325565b60405180910390fd5b60018160050160006101000a81548160ff0219169083151502179055508181600601819055506005339080600181540180825580915050600190039060005260206000200160009091909190916101000a81548173ffffffffffffffffffffffffffffffffffffffff021916908373ffffffffffffffffffffffffffffffffffffffff1602179055508060040154600460008573ffffffffffffffffffffffffffffffffffffffff1673ffffffffffffffffffffffffffffffffffffffff1681526020019081526020016000206004016000828254610ad69190612374565b92505081905550505050565b60606003805480602002602001604051908101604052809291908181526020018280548015610b6657602002820191906000526020600020905b8160009054906101000a900473ffffffffffffffffffffffffffffffffffffffff1673ffffffffffffffffffffffffffffffffffffffff1681526020019060010190808311610b1c575b5050505050905090565b60058181548110610b8057600080fd5b906000526020600020016000915054906101000a900473ffffffffffffffffffffffffffffffffffffffff1681565b6004602052806000526040600020600091509050806000015490806001018054610bd89061223b565b80601f0160208091040260200160405190810160405280929190818152602001828054610c049061223b565b8015610c515780601f10610c2657610100808354040283529160200191610c51565b820191906000526020600020905b815481529060010190602001808311610c3457829003601f168201915b505050505090806002018054610c669061223b565b80601f0160208091040260200160405190810160405280929190818152602001828054610c929061223b565b8015610cdf5780601f10610cb457610100808354040283529160200191610cdf565b820191906000526020600020905b815481529060010190602001808311610cc257829003601f168201915b505050505090806003018054610cf49061223b565b80601f0160208091040260200160405190810160405280929190818152602001828054610d209061223b565b8015610d6d5780601f10610d4257610100808354040283529160200191610d6d565b820191906000526020600020905b815481529060010190602001808311610d5057829003601f168201915b5050505050908060040154908060050160009054906101000a900473ffffffffffffffffffffffffffffffffffffffff1690806006018054610dae9061223b565b80601f0160208091040260200160405190810160405280929190818152602001828054610dda9061223b565b8015610e275780601f10610dfc57610100808354040283529160200191610e27565b820191906000526020600020905b815481529060010190602001808311610e0a57829003601f168201915b5050505050905087565b60606005805480602002602001604051908101604052809291908181526020018280548015610eb557602002820191906000526020600020905b8160009054906101000a900473ffffffffffffffffffffffffffffffffffffffff1673ffffffffffffffffffffffffffffffffffffffff1681526020019060010190808311610e6b575b5050505050905090565b6007602052806000526040600020600091509050806000015490806001018054610ee89061223b565b80601f0160208091040260200160405190810160405280929190818152602001828054610f149061223b565b8015610f615780601f10610f3657610100808354040283529160200191610f61565b820191906000526020600020905b815481529060010190602001808311610f4457829003601f168201915b505050505090806002018054610f769061223b565b80601f0160208091040260200160405190810160405280929190818152602001828054610fa29061223b565b8015610fef5780601f10610fc457610100808354040283529160200191610fef565b820191906000526020600020905b815481529060010190602001808311610fd257829003601f168201915b5050505050908060030160009054906101000a900473ffffffffffffffffffffffffffffffffffffffff16908060040154908060050160009054906101000a900460ff16908060060154908060070180546110499061223b565b80601f01602080910402602001604051908101604052809291908181526020018280546110759061223b565b80156110c25780601f10611097576101008083540402835291602001916110c2565b820191906000526020600020905b8154815290600101906020018083116110a557829003601f168201915b5050505050905088565b60018060000154905081565b6060600680548060200260200160405190810160405280929190818152602001828054801561115c57602002820191906000526020600020905b8160009054906101000a900473ffffffffffffffffffffffffffffffffffffffff1673ffffffffffffffffffffffffffffffffffffffff1681526020019060010190808311611112575b5050505050905090565b606080600080600460008673ffffffffffffffffffffffffffffffffffffffff1673ffffffffffffffffffffffffffffffffffffffff1681526020019081526020016000209050806001018160020182600001548280546111c69061223b565b80601f01602080910402602001604051908101604052809291908181526020018280546111f29061223b565b801561123f5780601f106112145761010080835404028352916020019161123f565b820191906000526020600020905b81548152906001019060200180831161122257829003601f168201915b505050505092508180546112529061223b565b80601f016020809104026020016040519081016040528092919081815260200182805461127e9061223b565b80156112cb5780601f106112a0576101008083540402835291602001916112cb565b820191906000526020600020905b8154815290600101906020018083116112ae57829003601f168201915b50505050509150935093509350509193909250565b60008060000154905081565b6000606080600060606000806000600760008a73ffffffffffffffffffffffffffffffffffffffff1673ffffffffffffffffffffffffffffffffffffffff1681526020019081526020016000209050806000015481600101826002018360030160009054906101000a900473ffffffffffffffffffffffffffffffffffffffff168460070185600401548660050160009054906101000a900460ff168580546113949061223b565b80601f01602080910402602001604051908101604052809291908181526020018280546113c09061223b565b801561140d5780601f106113e25761010080835404028352916020019161140d565b820191906000526020600020905b8154815290600101906020018083116113f057829003601f168201915b505050505095508480546114209061223b565b80601f016020809104026020016040519081016040528092919081815260200182805461144c9061223b565b80156114995780601f1061146e57610100808354040283529160200191611499565b820191906000526020600020905b81548152906001019060200180831161147c57829003601f168201915b505050505094508280546114ac9061223b565b80601f01602080910402602001604051908101604052809291908181526020018280546114d89061223b565b80156115255780601f106114fa57610100808354040283529160200191611525565b820191906000526020600020905b81548152906001019060200180831161150857829003601f168201915b50505050509250975097509750975097509750975050919395979092949650565b3373ffffffffffffffffffffffffffffffffffffffff16600260009054906101000a900473ffffffffffffffffffffffffffffffffffffffff1673ffffffffffffffffffffffffffffffffffffffff16146115d6576040517f08c379a00000000000000000000000000000000000000000000000000000000081526004016115cd9061243c565b60405180910390fd5b6115e060016117aa565b60006115ec60016117c0565b90506000600460008873ffffffffffffffffffffffffffffffffffffffff1673ffffffffffffffffffffffffffffffffffffffff1681526020019081526020016000209050818160000181905550858160010190805190602001906116529291906117ce565b508481600201908051906020019061166b9291906117ce565b50838160030190805190602001906116849291906117ce565b5060008160040181905550868160050160006101000a81548173ffffffffffffffffffffffffffffffffffffffff021916908373ffffffffffffffffffffffffffffffffffffffff160217905550828160060190805190602001906116ea9291906117ce565b506003879080600181540180825580915050600190039060005260206000200160009091909190916101000a81548173ffffffffffffffffffffffffffffffffffffffff021916908373ffffffffffffffffffffffffffffffffffffffff160217905550817fd297f12b256bb8485a6013fb5e302017018123e99a0ebb20756c09e1707b4b9087878785600401548c8960405161178c9695949392919061245c565b60405180910390a250505050505050565b6000600380549050905090565b6001816000016000828254019250508190555050565b600081600001549050919050565b8280546117da9061223b565b90600052602060002090601f0160209004810192826117fc5760008555611843565b82601f1061181557805160ff1916838001178555611843565b82800160010185558215611843579182015b82811115611842578251825591602001919060010190611827565b5b5090506118509190611854565b5090565b5b8082111561186d576000816000905550600101611855565b5090565b6000604051905090565b600080fd5b600080fd5b600073ffffffffffffffffffffffffffffffffffffffff82169050919050565b60006118b082611885565b9050919050565b6118c0816118a5565b81146118cb57600080fd5b50565b6000813590506118dd816118b7565b92915050565b600080fd5b600080fd5b6000601f19601f8301169050919050565b7f4e487b7100000000000000000000000000000000000000000000000000000000600052604160045260246000fd5b611936826118ed565b810181811067ffffffffffffffff82111715611955576119546118fe565b5b80604052505050565b6000611968611871565b9050611974828261192d565b919050565b600067ffffffffffffffff821115611994576119936118fe565b5b61199d826118ed565b9050602081019050919050565b82818337600083830152505050565b60006119cc6119c784611979565b61195e565b9050828152602081018484840111156119e8576119e76118e8565b5b6119f38482856119aa565b509392505050565b600082601f830112611a1057611a0f6118e3565b5b8135611a208482602086016119b9565b91505092915050565b60008060008060808587031215611a4357611a4261187b565b5b6000611a51878288016118ce565b945050602085013567ffffffffffffffff811115611a7257611a71611880565b5b611a7e878288016119fb565b935050604085013567ffffffffffffffff811115611a9f57611a9e611880565b5b611aab878288016119fb565b925050606085013567ffffffffffffffff811115611acc57611acb611880565b5b611ad8878288016119fb565b91505092959194509250565b6000819050919050565b611af781611ae4565b82525050565b6000602082019050611b126000830184611aee565b92915050565b611b2181611ae4565b8114611b2c57600080fd5b50565b600081359050611b3e81611b18565b92915050565b600060208284031215611b5a57611b5961187b565b5b6000611b6884828501611b2f565b91505092915050565b611b7a816118a5565b82525050565b6000602082019050611b956000830184611b71565b92915050565b600060208284031215611bb157611bb061187b565b5b6000611bbf848285016118ce565b91505092915050565b600081519050919050565b600082825260208201905092915050565b60005b83811015611c02578082015181840152602081019050611be7565b83811115611c11576000848401525b50505050565b6000611c2282611bc8565b611c2c8185611bd3565b9350611c3c818560208601611be4565b611c45816118ed565b840191505092915050565b60006080820190508181036000830152611c6a8187611c17565b9050611c796020830186611aee565b8181036040830152611c8b8185611c17565b9050611c9a6060830184611b71565b95945050505050565b60008060408385031215611cba57611cb961187b565b5b6000611cc8858286016118ce565b9250506020611cd985828601611b2f565b9150509250929050565b600081519050919050565b600082825260208201905092915050565b6000819050602082019050919050565b611d18816118a5565b82525050565b6000611d2a8383611d0f565b60208301905092915050565b6000602082019050919050565b6000611d4e82611ce3565b611d588185611cee565b9350611d6383611cff565b8060005b83811015611d94578151611d7b8882611d1e565b9750611d8683611d36565b925050600181019050611d67565b5085935050505092915050565b60006020820190508181036000830152611dbb8184611d43565b905092915050565b600060e082019050611dd8600083018a611aee565b8181036020830152611dea8189611c17565b90508181036040830152611dfe8188611c17565b90508181036060830152611e128187611c17565b9050611e216080830186611aee565b611e2e60a0830185611b71565b81810360c0830152611e408184611c17565b905098975050505050505050565b60008115159050919050565b611e6381611e4e565b82525050565b600061010082019050611e7f600083018b611aee565b8181036020830152611e91818a611c17565b90508181036040830152611ea58189611c17565b9050611eb46060830188611b71565b611ec16080830187611aee565b611ece60a0830186611e5a565b611edb60c0830185611aee565b81810360e0830152611eed8184611c17565b90509998505050505050505050565b60006060820190508181036000830152611f168186611c17565b90508181036020830152611f2a8185611c17565b9050611f396040830184611aee565b949350505050565b600060e082019050611f56600083018a611aee565b8181036020830152611f688189611c17565b90508181036040830152611f7c8188611c17565b9050611f8b6060830187611b71565b8181036080830152611f9d8186611c17565b9050611fac60a0830185611aee565b611fb960c0830184611e5a565b98975050505050505050565b600080600080600060a08688031215611fe157611fe061187b565b5b6000611fef888289016118ce565b955050602086013567ffffffffffffffff8111156120105761200f611880565b5b61201c888289016119fb565b945050604086013567ffffffffffffffff81111561203d5761203c611880565b5b612049888289016119fb565b935050606086013567ffffffffffffffff81111561206a57612069611880565b5b612076888289016119fb565b925050608086013567ffffffffffffffff81111561209757612096611880565b5b6120a3888289016119fb565b9150509295509295909350565b7f4f6e6c79206f7267616e697a65722063616e2063726561746520766f74657200600082015250565b60006120e6601f83611bd3565b91506120f1826120b0565b602082019050919050565b60006020820190508181036000830152612115816120d9565b9050919050565b7f566f74657220697320616c726561647920726567697374657265640000000000600082015250565b6000612152601b83611bd3565b915061215d8261211c565b602082019050919050565b6000602082019050818103600083015261218181612145565b9050919050565b600060e08201905081810360008301526121a2818a611c17565b905081810360208301526121b68189611c17565b90506121c56040830188611b71565b6121d26060830187611aee565b6121df6080830186611e5a565b6121ec60a0830185611aee565b81810360c08301526121fe8184611c17565b905098975050505050505050565b7f4e487b7100000000000000000000000000000000000000000000000000000000600052602260045260246000fd5b6000600282049050600182168061225357607f821691505b602082108114156122675761226661220c565b5b50919050565b7f596f75206861766520616c726561647920766f74656400000000000000000000600082015250565b60006122a3601683611bd3565b91506122ae8261226d565b602082019050919050565b600060208201905081810360008301526122d281612296565b9050919050565b7f596f752068617665206e6f20726967687420746f20766f746500000000000000600082015250565b600061230f601983611bd3565b915061231a826122d9565b602082019050919050565b6000602082019050818103600083015261233e81612302565b9050919050565b7f4e487b7100000000000000000000000000000000000000000000000000000000600052601160045260246000fd5b600061237f82611ae4565b915061238a83611ae4565b9250827fffffffffffffffffffffffffffffffffffffffffffffffffffffffffffffffff038211156123bf576123be612345565b5b828201905092915050565b7f4f6e6c79206f7267616e697a65722063616e2063726561746520612063616e6460008201527f6964617465000000000000000000000000000000000000000000000000000000602082015250565b6000612426602583611bd3565b9150612431826123ca565b604082019050919050565b6000602082019050818103600083015261245581612419565b9050919050565b600060c08201905081810360008301526124768189611c17565b9050818103602083015261248a8188611c17565b9050818103604083015261249e8187611c17565b90506124ad6060830186611aee565b6124ba6080830185611b71565b81810360a08301526124cc8184611c17565b905097965050505050505056fea26469706673582212205f3ba53799ab874ee9ce4f6f3720b3bfe520eaf469a6ca162c07497e1d4e328764736f6c63430008090033",
  "linkReferences": {},
  "deployedLinkReferences": {}
}